:020000040800F2
:10000000300B0020890100080B0C0008950B00083C
:10001000090C00087F030008B70E0008000000006C
:10002000000000000000000000000000510E000869
:1000300081030008000000000D0C0008530E0008AA
:10004000A3010008A3010008A3010008A301000800
:10005000A3010008A3010008A3010008A3010008F0
:10006000A3010008A3010008A3010008A3010008E0
:10007000A3010008A3010008A3010008A3010008D0
:10008000A3010008A3010008A3010008A3010008C0
:10009000A3010008A3010008A3010008A3010008B0
:1000A000A3010008A3010008A3010008A3010008A0
:1000B000A3010008A3010008A3010008A301000890
:1000C000A3010008A3010008A3010008A301000880
:1000D000A3010008A3010008A3010008A301000870
:1000E000A3010008A3010008A301000800F002F822
:1000F00000F03AF80AA090E8000C82448344AAF188
:100100000107DA4501D100F02FF8AFF2090EBAE885
:100110000F0013F0010F18BFFB1A43F0010318473B
:100120003811000058110000103A24BF78C878C177
:10013000FAD8520724BF30C830C144BF04680C60ED
:10014000704700000023002400250026103A28BF35
:1001500078C1FBD8520728BF30C148BF0B60704739
:100160001FB51FBD10B510BD00F0CFF81146FFF749
:10017000F7FF01F027F800F0EDF803B4FFF7F2FF06
:1001800003BC00F0F5F80000094880470948004723
:10019000FEE7FEE7FEE7FEE7FEE7FEE7FEE7FEE737
:1001A000FEE7FEE704480549054A064B7047000094
:1001B000B50E0008ED00000830050020300B0020CF
:1001C0003007002030070020032A40F2308010F072
:1001D000030C00F0158011F8013BBCF1020F6244E2
:1001E00098BF11F801CB00F8013B38BF11F8013B73
:1001F000A2F1040298BF00F801CB38BF00F8013B20
:1002000011F0030300F04F80083AC0F0088051F865
:10021000043B083A51F804CBA0E80810F5E7121D9A
:100220005CBF51F8043B40F8043BAFF30080D207B9
:1002300024BF11F8013B11F801CB48BF11F8012B85
:1002400024BF00F8013B00F801CB48BF00F8012BA8
:1002500070474FF0000200B5134694469646203989
:1002600022BFA0E80C50A0E80C50B1F12001BFF46F
:10027000F7AF090728BFA0E80C5048BF0CC05DF8D5
:1002800004EB890028BF40F8042B08BF704748BF23
:1002900020F8022B11F0804F18BF00F8012B704797
:1002A00070477047704710B5203AC0F00B80B1E836
:1002B0001850203AA0E81850B1E81850A0E818509B
:1002C000BFF4F5AF5FEA027C24BFB1E81850A0E8A4
:1002D000185044BF18C918C0BDE810405FEA827CBE
:1002E00024BF51F8043B40F8043B08BF7047D207D5
:1002F00028BF31F8023B48BF11F8012B28BF20F876
:10030000023B48BF00F8012B7047754600F02CF8FF
:10031000AE4605006946534620F00700854618B0F2
:1003200020B5FFF73FFFBDE820404FF000064FF03B
:1003300000074FF000084FF0000B21F00701AC461A
:10034000ACE8C009ACE8C009ACE8C009ACE8C00939
:100350008D46704710B50446AFF300802046BDE8D7
:100360001040FFF70ABF000000487047CC0400208F
:1003700001491820ABBEFEE7260002007047FEE7E9
:100380007047000070B5044600F004F90546601C93
:1003900002D004480078044400F0FCF8401BA0425E
:1003A000FAD370BD040000202DE9F84FDFF8B891B2
:1003B000002409F1040A0AF1040B23460F270BF16C
:1003C000040EC9E00125A5402A40AA427DD1674E0E
:1003D000D1F804C0ACEB0608B44532D014DCBCF153
:1003E000030F3AD009DCBCF1000F2AD0BCF1010F99
:1003F0001CD0BCF1020F31D11DE0BCF1110F17D0A0
:10040000BCF1120F2AD119E0B8F5881F19D006DC0B
:10041000B8F5803F15D0B8F5801F1FD111E0B8F5B1
:10042000001F0ED0B8F5041F18D10AE0CB6815E004
:10043000CB681B1D12E0CB6808330FE0CB680C3390
:100440000CE08B682BB1012B4FF0080303D0456102
:1004500004E0042302E0056100E00023FF2A01D844
:10046000064601E000F104064FEA840501D9A5F132
:100470002005D6F8008007FA05FC28EA0C0803FAE4
:1004800005F548EA0508C6F800804D68ED0062D51C
:10049000374DAE6946F00106AE61AD6924F0030642
:1004A00005F001050095334D06EB050CDCF808500E
:1004B000A607360F07FA06F825EA0805DFF8B88020
:1004C000404503D14FF0000817E044E0DFF8AC806E
:1004D000404502D14FF001080FE0DFF8A48040450D
:1004E00002D14FF0020808E0DFF89880404502D1C1
:1004F0004FF0030801E04FF0040808FA06F848EA54
:100500000508CCF808804D68D9F80060ED034D4629
:1005100001D5164300E096432E604D68DAF800607E
:10052000AD03554601D5164300E096432E604D6855
:10053000DBF80060ED025D4601D5164300E096430E
:100540002E604D68DEF80060AD02754601D5164399
:1005500000E096432E60641C0D682A46E5407FF457
:1005600031AFBDE8F88F0000000401400000111019
:10057000001002400000014000080140000C014052
:1005800000100140001401400AB1016170470904E4
:10059000FBE700000148806870470000040000206D
:1005A000024881680278114481607047040000208D
:1005B000074810B5016841F010010160032000F008
:1005C00067F80F2000F006F800F024F8002010BDB6
:1005D0000020024070B50D4D04464FF47A71287822
:1005E000B1FBF0F00A490968B1FBF0F000F0BEFA87
:1005F00048B9102C07D200222146501E00F028F8DE
:1006000000206C6070BD012070BD0000040000205F
:10061000100000200C4808B5816941F0010181619A
:10062000816901F001010091C16941F08051C1610E
:10063000C06900F0805000900448416821F0E061FA
:1006400041F00071416008BD00100240000001400F
:10065000F0B40E4B1B680C46C3F30223C3F107052D
:10066000042D00D90425191D072901D2002300E01B
:10067000DB1E012606FA05F1491E214099409E40E5
:10068000761E16403143F0BC00F08BBD0CED00E04F
:10069000064900F0070208684FF6FF03184040EAD9
:1006A0000220034A10430860704700000CED00E090
:1006B0000000FA052DE9F0470F46050061D0434ED2
:1006C000306800F00700B84209D2306820F0070017
:1006D00038433060306800F00700B84251D12868D4
:1006E0003B4C810712D5400703D5606840F4E060B9
:1006F00060602878000703D5606840F4605060604F
:100700006068A96820F0F000084360602878C0079E
:1007100028D06868012810D02168022810D08907E5
:1007200000292EDA616821F0030101436160FFF7BF
:1007300031FF804641F288390DE021688903EFE7F7
:100740008901EDE7FFF726FFA0EB0801494502D933
:100750000320BDE8F0876068696800F00C00B0EB2A
:10076000810FEFD1306800F00700B8420BD9306834
:1007700020F0070038433060306800F00700B842CE
:1007800001D00120E5E72878400705D56068E968D1
:1007900020F4E060084360602878000706D56068B0
:1007A000296920F4605040EAC100606000F018F848
:1007B0006168084AC1F30311515CC84006490860EA
:1007C00006480068FFF706FF0020C2E7002002404D
:1007D0000010024024120008100000200800002031
:1007E00012A185B00FC98DE80F0014A0144A00684B
:1007F00004905168134801F00C03042B10D0082B0F
:100800000ED1C1F38343C9031DF803000AD5516813
:1008100004AAC1F34041515C0A4A5043B0FBF1F0D5
:1008200005B0704708494843FAE700000203040591
:10083000060708090A0B0C0D0E0F1010010200002C
:100840000010024000127A0000093D002DE9F84F27
:10085000040070D02078C04DC00749D06868C0F34C
:100860008100012807D06868C0F38100022809D1FF
:100870006868C00306D52868800339D560680028F9
:10088000E7D035E06068B0F5803F0BD010B1B0F52F
:10089000A02F11D0286820F480302860286820F428
:1008A000802002E0286840F480302860606890B1C1
:1008B000FFF770FE06460AE0286840F480202860B2
:1008C000F0E700BFFFF766FE801B642873D8286836
:1008D0008003F7D50CE0FFF75DFE064605E000BF9C
:1008E000FFF758FE801B6428F0D828688003F7D4EF
:1008F00020789A4E80074FF001094FF0000839D553
:10090000686810F00C0F07D06868C0F381000228F7
:1009100009D16868C00306D42868800714D5206907
:10092000012808D110E02069B0B1C6F80090FFF7A7
:1009300031FE074605E00AE1FFF72CFEC01B022846
:10094000C4D828688007F7D52868616920F0F800C6
:1009500040EAC10028600DE0C6F80080FFF71AFEEB
:10096000074604E0FFF716FEC01B022823D82868BC
:100970008007F7D4207800072CD57948A169D9B130
:10098000C0F80090FFF706FE074604E0FFF702FEFE
:10099000C01B02280FD8686A8007F7D571484FF44A
:1009A000FA510068B0FBF1F0009000BF0098411EC2
:1009B0000091FAD20EE080E0C0F80080FFF7EAFD77
:1009C000074604E0FFF7E6FDC01B022875D8686AF9
:1009D0008007F7D42078400760D5E8690027C00079
:1009E00008D4E86940F08050E861E869012700F028
:1009F000805000905C480168C90513D401688346A3
:100A000041F480710160FFF7C5FD824606E000BF3A
:100A1000FFF7C0FDA0EB0A0064284ED8DBF8000009
:100A2000C005F5D5E06801280AD008B1052813D023
:100A3000286A20F001002862286A20F0040002E001
:100A4000286A40F001002862E06841F2883B98B1D2
:100A5000FFF7A0FD82460BE0286A40F00400286200
:100A6000EEE700BFFFF796FDA0EB0A0159455AD803
:100A7000286A8007F6D50CE0FFF78CFD824605E07A
:100A8000FFF788FDA0EB0A0159454CD8286A80077A
:100A9000F6D41FB1E86920F08050E861E06988B3BE
:100AA0006968C1F38101022944D00228C6F8608038
:100AB00004D0FFF76FFD044638E034E0FFF76AFD2D
:100AC000074604E0FFF766FDC01B02282BD8286804
:100AD0008001F7D4206AB0F5803F05D16868A1682D
:100AE00020F4003008436860D4E9080108436968CD
:100AF00021F4741108436860C6F86090FFF74AFD5E
:100B0000044606E025E000BFFFF744FD001B022875
:100B100009D828688001F7D51BE000BFFFF73AFD30
:100B2000001B022802D90320BDE8F88F2868800145
:100B3000F4D40EE00128F7D06868226A00F480310E
:100B4000914204D1616A00F47010884201D0012002
:100B5000EAE70020E8E700000010024000004242FF
:100B600080044242100000200070004010B5401E7A
:100B7000B0F1807F01D3012010BD4FF0E02460610F
:100B80000F21601700F00DFB0020A06107202061FD
:100B9000002010BDFEE7000070B586B000241848A4
:100BA0000094019402940394816941F010018161E1
:100BB000816901F010010491816941F02001816196
:100BC000816901F020010491816941F00401816192
:100BD00080690C4E00F004004FF400550490002290
:100BE00029463046FFF7D0FC01200095CDE90104ED
:100BF0000220039069463046FFF7D6FB06B070BD71
:100C00000010024000100140FEE7FEE770470000C0
:100C10002DE9F04107460B4815460E46007808B905
:100C200000F04AF9EFF31184202080F311882A465E
:100C30003146384600F008F8E1B281F31188BDE88A
:100C4000F08100001400002070B50E46144900EB3E
:100C5000400001EBC0051446E86A183520B10128B0
:100C60000FD0022805D113E0284600F053F9A04226
:100C700001D2002411E022463146284600F070FAE5
:100C80000BE0284600F046F9A042F4D20446F2E711
:100C90003146284600F037FA0446204670BD000071
:100CA000140000200FB408B504A900916A46039906
:100CB00000F003F801B05DF814FB2DE9F04198B0A5
:100CC000064607A8029040200025CDE90305CDE99E
:100CD000055690460C4614F8011B002973D02529AF
:100CE00008D002A800F0F0F905980028F3DA18B04F
:100CF000BDE8F081002001212278232A1ED02B2A72
:100D000019D02D2A02D0302A08D102E040F001008B
:100D100001E040F00200641C0029EDD1002221789E
:100D2000A1F130030A2B0CD202EB820201EB42024A
:100D3000303A641CF3E740F00400ECE740F00800B0
:100D4000E9E70023CFB22E2F0BD114F8011FA1F138
:100D500030070A2F05D203EB830301EB4303303B3B
:100D6000F3E76C290DD068290BD0702954D00BDC27
:100D7000252916D0582931D063290CD0642913D1E4
:100D800014E014F8011FECE7732934D075291BD047
:100D9000782909D122E0D8F80000011DC8F8001018
:100DA000017802A800F090F9641C9DE7D8F80010C3
:100DB0000F1DC8F800700968CDE900200A2202A8BA
:100DC00000F0B4F8F0E733E0D8F800100F1DC8F8D1
:100DD00000700968CDE900200A2208E0D8F8001068
:100DE0000F1DC8F800700968CDE90020102202A884
:100DF00000F000F9D8E7D8F80000011DC8F800108D
:100E0000076817F8011B0029CED002A800F05CF992
:100E100005980028F5DAC7E7D8F80000011DC8F8E2
:100E2000001001680820CDE9000503461022DEE726
:100E3000059800287FF75BAF049820B1024607A908
:100E40003046FFF7E5FEDDE90410084405904EE763
:100E50007047FFF7A5BB30B58FB028216846FFF774
:100E6000F8F914210AA8FFF7F4F901210804CDE9E3
:100E700000100024029402250491CDE907504FF49C
:100E8000E01009906846FFF7E1FC08B172B6FEE792
:100E90000F20CDE90A054FF48060CDE90C40022116
:100EA0000AA80E94FFF706FC002801D072B6FEE7F0
:100EB0000FB030BD7047FEE7114803210161416169
:100EC00010A1816100F1A801C1614FF4806101624C
:100ED000002181624162C1620AA2026600F5956248
:100EE0004266102282660167C1664167084A00BFF8
:100EF000C1F10F03D35C4354491C1029F8D3704748
:100F0000140000205465726D696E616C0000000071
:100F1000341200080269C1688A4203D88068401A06
:100F2000104400E0501A401E704700002DE9FC5F9D
:100F30000E008146DDE90C47C6F100009846934655
:100F4000824600D40846012503E000BF90FBFBF079
:100F50006D1C5845FADAA84500D9454624B1002E43
:100F600001DB780700D5641EB80702D5B8F1000F81
:100F70000FD0F8070DD164B1A5420AD2202148460E
:100F8000641E00F0A1F8D9F80C000028F3DABDE8DF
:100F9000FC9FD9F80C000028F9DB002E02DA564637
:100FA0002D2102E0780707D52B21484600F08CF868
:100FB000D9F80C000028EADB07F0030002280FD163
:100FC000B8F1000F0CD15CB1A54209D230214846DE
:100FD000641E00F079F8D9F80C000028F3DAD6E79F
:100FE000CDE9004743465A463146484600F002F8EC
:100FF000CDE700002DE9F84F8246DDE90A4B0126D6
:10100000984691460D460846374602E0B0FBF9F097
:101010007F1C4845FAD2B84500D947465FEACB70F5
:1010200017D1B4B15FEA8B7002D5B8F1000F02D0CE
:10103000202000900BE03020FBE75046641E009912
:1010400000F042F8DAF80C00002838DB0CB1A742B7
:10105000F3D3DAF80C00002831DB00BFB8F1010F40
:1010600002D9A8F1010803E0B5FBF6F0484502D328
:1010700006FB09F6F2E7DFF84C8000BFB5FBF6F09F
:1010800000FB165518F80010504600F01DF8DAF86D
:101090000C00002803DBB6FBF9F6002EEED15FEA68
:1010A000CB700CD0002C0AD0A74208D22021504689
:1010B000641E00F009F8DAF80C000028F2DABDE846
:1010C000F88F00004512000810B50446D4E901303D
:1010D000421C934205D323681954A260E068401C67
:1010E000E060D4E90102824209D121682069FFF75A
:1010F0008FFDA168884203D04FF0FF30E06010BD43
:101100000020A06010BD2DE9F047C468174689464D
:1011100006464FF000083069A04201D9051B02E0E5
:10112000B168201A0D1AB0686D1E001BA84200D8C5
:101130000546BD4200D33D4670682A4620444946D4
:10114000FFF742F8B0687F1B2C44A844A944A04292
:1011500000D10024F460002FDDD14046BDE8F087C7
:101160002DE9F04104468846D4E90207C51BE16831
:10117000606816460844B54206D94146FFF724F890
:10118000B819E060BDE8F0812A464146FFF71CF837
:10119000761B08EB050132466068FFF715F8E6603C
:1011A000F0E70907090E002804DB00F1E02080F8D1
:1011B0000014704700F00F0000F1E02080F8141DCB
:1011C00070470000FFF7F4F9FFF745FEFFF7E4FC76
:1011D0000D4D0E4C4FF400560DA10020FFF762FD9F
:1011E000012231462846FFF7CFF96420FFF7CAF8FD
:1011F000002231462846FFF7C7F9C820FFF7C2F89A
:101200002068401C2060E7E700100140000000203B
:1012100074657374696E672072747420766965777B
:1012200065720000000000000000000001020304DD
:1012300006070809000000000000545452205245DF
:10124000474745530030313233343536373839412A
:101250004243444546000000781200080000002088
:1012600014000000280100088C120008140000205F
:101270001C0B0000440100080000000001000000F9
:0C12800010000000000000000024F4003A
:04000005080000ED02
:00000001FF
